:100000000C945A000C9477000C9477000C947700B1
:100010000C9477000C9477000C9477000C94770084
:100020000C9477000C9477000C9477000C94770074
:100030000C9477000C9477000C9477000C94770064
:100040000C9477000C9477000C9477000C94770054
:100050000C9477000C9477000C9477000C94770044
:100060000C9477000C9477000C9477000C94770034
:100070000C9477000C9477000C9477000C94770024
:100080000C9477000C9477000C9477000C94770014
:100090000C9477000C9477000C9477000C94770004
:1000A0000C9477000C9477000C9477000C947700F4
:1000B0000C94770011241FBECFEFD8E0DEBFCDBF78
:1000C00011E0A0E0B1E0ECEDF5E002C005900D928A
:1000D000A233B107D9F721E0A2E3B1E001C01D923C
:1000E000AA33B207E1F70E9438010C94EC020C9499
:1000F0000000282F30E080E090E009C00196A901BF
:10010000332314F44F5F5F4F9A01359527951216EC
:100110001306A4F3089520E011C095B19E7F95B910
:10012000882324F495B1946095B903C095B19B7F61
:1001300095B995B1916095B92F5F880F283068F314
:100140000895CF93C62F95B19D7F95B90E948B00DE
:100150008C2F0E948B0085B1826085B9CF91089564
:10016000CF93C0E005C0CF5F60E08C2F0E94A1005C
:10017000C830C8F3CF91089584B1876084B960E036
:100180008BE00E94A10061E08AE00E94A10067E08C
:100190008BE00E94A10061E08CE00E94A10060E081
:1001A0008FE00E94A1000E94B0000895CF93C0E0AC
:1001B00009C0EC2FF0E0EE5CFE4F6081CF5F8C2F2A
:1001C0000E94A100C830A8F3CF910895BC0190E02F
:1001D0000BC0292F30E0FB01E20FF31F4081F90132
:1001E000EE5CFE4F40839F5F983098F30895ECE7F4
:1001F000F0E09081907F90839081892B8083EAE763
:10020000F0E080818064808380917A0084FFFCCF5D
:1002100080917800909179000895CF93DF9380E0EA
:100220000E94F700EC0181E00E94F7009C01CC32B3
:1002300081E0D80710F080E001C083E0CC5BD240C1
:10024000C434D14008F481E0833021F0813011F0D2
:1002500081110BC02C3291E0390708F484E02C5B4B
:1002600032402434314008F482E0DF91CF91089588
:100270000E94BC0017B8ECE7F0E0808180648083C6
:100280008FE880937A00EEE7F0E0808181608083E0
:1002900080818260808388E291E00E94E6000E9473
:1002A000D6002FEF39E648E1215030404040E1F7D9
:1002B00000C0000080E291E00E94E6000E94D600AB
:1002C0005FEF89E698E1515080409040E1F700C02F
:1002D00000000E940D018823F1F20E940D0181307F
:1002E00009F04AC010913101812F0E947900C8E0C5
:1002F000D0E09E01281B390BC901F901E85DFE4FD2
:100300002081FC01E05EFE4F2083812F880F8093C7
:1003100031010E947900AE01481B590BFA01E05EE1
:10032000FE4F2081309130012323B1F0FA01E85EC5
:10033000FE4F2081FA01E05EFE4F208381E0809332
:10034000310180E48093300188E191E00E94E60071
:100350000E94D60080E010C0FA01E85DFE4F2081C7
:10036000FA01E05EFE4F322B308380E291E00E9482
:10037000E6000E94D60080E0833009F04AC0109168
:100380003101812F0E947900C8E0D0E09E01281B36
:10039000390BC901F901E85DFE4F2081FC01E05EE7
:1003A000FE4F2083812F8695809331010E94790032
:1003B000AE01481B590BFA01E05EFE4F20813091DF
:1003C00030012323B1F0FA01E85EFE4F2081FA01EB
:1003D000E05EFE4F208381E08093310180E48093D2
:1003E000300188E191E00E94E6000E94D60080E0A2
:1003F00010C0FA01E85DFE4F2081FA01E05EFE4F79
:10040000322B308380E291E00E94E6000E94D60009
:1004100080E08230E1F5809131010E94790028E08E
:1004200030E0A901481B590BCA01FA01E85DFE4FF3
:100430003081FA01E05EFE4F308320913001269535
:1004400020933001432F4223B1F0FC01E85EFE4FC0
:100450002081FC01E05EFE4F208381E0809331012A
:1004600080E48093300188E191E00E94E6000E94E0
:10047000D60080E00CC0FC01E05EFE4F232B208301
:1004800080E291E00E94E6000E94D60080E0843085
:10049000D1F5809131010E94790028E030E0A90176
:1004A000481B590BCA01FA01E85DFE4F3081FA0181
:1004B000E05EFE4F308320913001220F2093300107
:1004C000432F4223A9F0FC01E85EFE4F2081FC018E
:1004D000E05EFE4F208381E08093310180E48093D1
:1004E000300188E191E00E94E6000E94D6000BC036
:1004F000FC01E05EFE4F232B208380E291E00E940E
:10050000E6000E94D60091E080913101813009F02F
:1005100090E081E020913001203109F080E08923D2
:1005200009F4B9CE38C05FEF89E698E151508040B8
:100530009040E1F700C0000080E191E00E94E600F9
:100540000E94D6002FEF39E648E12150304040406C
:10055000E1F700C0000088E091E00E94E6000E9400
:10056000D6005FEF89E698E1515080409040E1F776
:1005700000C0000080E091E00E94E6000E94D600EA
:100580002FEF39E648E1215030404040E1F700C00C
:100590000000C15001C0C5E0C111C5CF809131013B
:1005A0000E94790028E030E0A901481B590BFA01AC
:1005B000E85EFE4F2081FA01E05EFE4F208381E07D
:1005C0008093310180E48093300188E191E00E94C2
:0C05D000E6000E94D6005FCEF894FFCF3A
:1005DC00C3E3F3FBDFCFC7C318180018181818189B
:1005EC00C3C3C3C3DBFFE7C3FFB185B5A5BDA1EF93
:1005FC00FFB185B5A5BDA1EFFFB185B5A5BDA1AF77
:02060C004001AB
:00000001FF
